:020000040800F2
:10000000B85700103D030008FB450008C93F000831
:10001000F945000895270008454C0008000000003D
:100020000000000000000000000000007D02000849
:100030008D28000800000000D902000805460008CD
:100040005703000857030008570300085703000828
:100050005703000857030008570300085703000818
:100060005703000857030008570300085703000808
:1000700057030008570300085703000857030008F8
:1000800057030008570300085703000857030008E8
:1000900057030008570300085703000857030008D8
:1000A00057030008C5460008570300085703000817
:1000B000D1460008570300085703000857030008FB
:1000C00057030008570300085703000857030008A8
:1000D0005703000857030008570300085703000898
:1000E0005703000857030008570300085703000888
:1000F0005703000857030008570300085703000878
:100100005703000857030008570300085703000867
:100110005703000857030008570300085703000857
:100120005703000857030008570300085703000847
:100130005703000857030008570300085703000837
:100140005703000857030008570300085703000827
:100150005703000857030008570300085703000817
:100160005703000857030008570300085703000807
:100170005703000857030008570300080000000059
:1001800057030008570300085703000857030008E7
:1001900057030008570300085703000857030008D7
:1001A00057030008570300085703000800F002F83F
:1001B00000F055F80AA090E8000C82448344AAF1AC
:1001C0000107DA4501D100F04AF8AFF2090EBAE8AA
:1001D0000F0013F0010F18BFFB1A43F0010318477B
:1001E000C0AD0000F0AD0000103A24BF78C878C15F
:1001F000FAD8520724BF30C830C144BF04680C602D
:10020000704700000023002400250026103A28BF74
:1002100078C1FBD8520728BF30C148BF0B60704778
:10022000662909F01386642900F03A81752900F0E7
:100230003781002070471FB509F0FBFD01F050F831
:1002400004000020002108F067FF401C60600020CF
:10025000002108F04BFFE0601FBD10B510BD01F09C
:1002600005FB1146FFF7E7FF05F0B0FF01F056FD73
:1002700003B4FFF7F2FF03BC01F0BCFD2C4B19687F
:100280000868B0E8F04F80F30988BFF36F8F4FF034
:10029000000080F3118870470000000008480068E3
:1002A000006880F308884FF0000080F3148862B67D
:1002B00061B6BFF34F8FBFF36F8F00DF00BF00BF8A
:1002C00008ED00E0DFF80C00016841F47001016006
:1002D000704700BF88ED00E0EFF30980BFF36F8F38
:1002E000134B1A681EF0100F08BF20ED108A20E98A
:1002F000F04F106009B44FF0500080F31188BFF345
:100300004F8FBFF36F8F08F09FF84FF0000080F31E
:10031000118809BC19680868B0E8F04F1EF0100F8A
:1003200008BFB0EC108A80F30988BFF36F8F704765
:1003300040000010EFF30580704700000948804737
:1003400009480047FEE7FEE7FEE7FEE7FEE7FEE7B7
:10035000FEE7FEE7FEE7FEE704480549054A064BCF
:1003600070470000B5460008AD010008B851001004
:10037000B8570010B8530010B853001053EA020CDD
:1003800000F069802DE9F04B4FF00006002B1FBFF5
:10039000B3FA83F503FA05F424FA05F65E4012BFBA
:1003A0001643B2FA82F502FA05F4C5F120051EBF24
:1003B00022FA05FC44EA0C04203556EA044C4FEAC4
:1003C000144418BF641C4FF000084FF0000990421D
:1003D00071EB030C39D3002919BFB1FA81F701FA87
:1003E00007F6B0FA80F700FA07F6C7F120071EBF3C
:1003F00020FA07FC46EA0C062037B6FBF4FCA7EB14
:100400000507103F07F01F0BCBF120060CFA0BFB82
:100410002CFA06F644BFB3460026202FA4BF5E4642
:100420004FF0000B5BEA060C08BF4FF0010B19EB15
:100430000B09ABFB027C48EB0608C01B06FB02CC99
:100440000BFB03CC71EB0C01C1E70B4602464146A6
:100450004846BDE8F08B13B54FF000004FF00001A7
:10046000AFF30080BDE81C40704700000FB41CB51E
:100470000C0007AA009001D02044401E074B7B448B
:1004800069460190069800F058FC002C03D069469C
:10049000002000F065FC1CBC5DF814FBE9080000BE
:1004A0002DE9F0410646002410687529314616A54D
:1004B00010D0AFF30080002802DA404213A507E015
:1004C00031688A0701D512A502E0490704D511A5B4
:1004D000012401E0AFF3008000210A2206F1240785
:1004E00009E0B0FBF2FCB0FBF2F302FB1C00303081
:1004F00078541846491C0028F3D123462A46304632
:10050000BDE8F04100F0ACB9000000002D00000093
:100510002B000000200000002DE9F0474FF0000AFA
:1005200089460446C0F820A02046E1688847002894
:1005300076D0252806D0D4E901219047206A401CB6
:100540002062F1E7E168204600268847C4F81CA035
:1005500005460027C4F818A02A2D09D0284605F022
:1005600076FD38B304EB8708303DC8F8185019E021
:1005700059F8041B204604EB87029161E168884723
:10058000012F054618D1E069002820DA26F0200660
:100590001DE0D8F8180000EB800005EB4000303873
:1005A000C8F818002046E1688847054605F04FFD69
:1005B0000028EED1012F0AD02E2D08D12046E16867
:1005C00088477F1C0546022F46F02006C4DBA06941
:1005D000002803DA404246F00106A061F00701D08E
:1005E00026F010066C2D0AD0682D08D04C2D39D07D
:1005F0006A2D35D0742D35D07A2D33D016E0E168D0
:100600002F4620468847B84205460AD16C2F27D08E
:100610004FF48060E168064320468847054605E0C0
:1006200027E06C2F1AD04FF4807006430DB3A5F16C
:100630004100192802D8203546F400664A4629466A
:10064000204626604E46FFF7EBFD80B101280BD017
:10065000F61D26F0070000F1080965E74020E4E7F1
:100660008020D7E70020D5E706F104095CE728469B
:1006700061E7206ABDE8F0870FB400B58DB010A91E
:10068000099000910B904FF0FF300A9000200C90E1
:10069000064878440690064878446A4607900F99C1
:1006A00009A800F0EDFD0DB05DF814FB0B0C000087
:1006B000230C0000032A40F2308010F0030C00F0FD
:1006C000158011F8013BBCF1020F624498BF11F88C
:1006D00001CB00F8013B38BF11F8013BA2F1040245
:1006E00098BF00F801CB38BF00F8013B11F00303BD
:1006F00000F02580083AC0F0088051F8043B083A21
:1007000051F804CBA0E80810F5E7121D5CBF51F8C2
:10071000043B40F8043BAFF30080D20724BF11F83C
:10072000013B11F801CB48BF11F8012B24BF00F8A1
:10073000013B00F801CB48BF00F8012B704710B512
:10074000203AC0F00B80B1E81850203AA0E81850C9
:10075000B1E81850A0E81850BFF4F5AF5FEA027C8A
:1007600024BFB1E81850A0E8185044BF18C918C0F9
:10077000BDE810405FEA827C24BF51F8043B40F89A
:10078000043B08BF7047D20728BF31F8023B48BF7F
:1007900011F8012B28BF20F8023B48BF00F8012BBD
:1007A000704702F0FF0343EA032242EA024200F0EC
:1007B00002B84FF000020429C0F0128010F0030CC0
:1007C00000F01B80CCF1040CBCF1020F18BF00F844
:1007D000012BA8BF20F8022BA1EB0C0100F00DB8F3
:1007E0005FEAC17C24BF00F8012B00F8012B48BF51
:1007F00000F8012B70474FF0000200B513469446F5
:100800009646203922BFA0E80C50A0E80C50B1F168
:100810002001BFF4F7AF090728BFA0E80C5048BF7C
:100820000CC05DF804EB890028BF40F8042B08BF1A
:10083000704748BF20F8022B11F0804F18BF00F816
:10084000012B704770477047704710B500F04CFDA2
:10085000006810BD10B5044600F046FD046010BDF0
:100860002DE9F0470D4699469246044600F12408CA
:100870000168880604D5E06921F01001216000E0DC
:100880000120A84201DD471B00E00027A1697A1979
:1008900002EB0900081AA0612078C00602D42046A5
:1008A000AFF30080002608E0D4E901211AF8060021
:1008B0009047206A401C761C20624E45F4DB20786D
:1008C000C0060AD52046AFF3008006E0D4E9012136
:1008D00030209047206A401C2062381EA7F1010793
:1008E000F4DC07E0D4E9012118F805009047206AFC
:1008F000401C2062281EA5F10105F3DC2046AFF361
:1009000000802078000602D50220BDE8F087012093
:10091000FBE770472DE9FF4F0C461E464FF0FF37AF
:100920008BB0D2E90001DDF860800A908A46C1F3FD
:100930000A5505B93D46002108464FF00000BAF1BE
:10094000000F00F4400005DA00EB80004FF4400196
:1009500001EA50004FEA9059B9F1010F00DDB946A4
:100960000A9850EA4A000ED044F61050A5F2FF351E
:1009700045432F14B8F1000F1ED07542291E1EDD0D
:10098000C9F100021CE0B8F1010F4FF0000001D0E6
:10099000302103E0F24305E02154401CB042FBDB70
:1009A00030460022002121540B99C1F80880C1E98A
:1009B00000200FB0BDE8F08FBD1B6D1CDEE74A467E
:1009C00000DA694206A800F0DBFE06AB93E80700F8
:1009D00003AB83E8070050460A9901F012FA8DE84C
:1009E0000700A0F500501F3800900398002D0ADD85
:1009F00042F21F014A460844002303A903906846B7
:100A000001F0BEFC09E0A0F500504A461F38002363
:100A100003A90390684601F0DDFC8DE8070000049F
:100A2000000C03D04FF0FF30410800E01046B8F151
:100A3000000F03D00022009215461EE0751E05D45B
:100A400000F056FC303262556D1EF9D5B3460122D6
:100A5000084302D000227F1C04E02078302801D116
:100A600000227F1E002A099784D01DE0112D07DA8D
:100A700000F03EFC303262556D1C50EA0102F5D1A7
:100A8000084302D00098C8B10EE00021681E05E0BE
:100A9000235C625C63542254401E491C8142F7DB94
:100AA000AB46A81B401E0990002004F80B000B98D1
:100AB000099AC0F80880C0E9002B7AE711264FF0A8
:100AC000000857E72DE9F04F88460446D21D22F072
:100AD000070191B0D1E90001CDE90A0104F0B3F8B2
:100AE00002460B98C00F01D02D2007E02068810737
:100AF00001D52B2002E0202101EAC000032A099041
:100B000001D0072A05DB03464146204600F03EFCA3
:100B10000BE12078800601D5E06900E00620B8F1FD
:100B2000650F814606D0B8F1660F18D0B8F1670F8F
:100B300070D131E00020B9F1110F009001DB1123D9
:100B400001E009F101030AAA01A90CA8FFF7E2FEDE
:100B5000DDE90C70002609F10105834647E001201C
:100B60004B4600904FF000470AAA01A90CA8FFF7D6
:100B7000D1FEDDE90DB00C995D46002610B909F1F2
:100B800001000D18B9EB050003D4C0F1FF3609F1DF
:100B90000105A5EB09002BE0B9F1010F01DA4FF0D7
:100BA00001090020B9F1110F0090484601DD112321
:100BB00000E003460AAA01A90CA8FFF7ABFEDDE995
:100BC0000C704D4600268346207800070AD4AB45BA
:100BD00000DA5D4601A8012D04DD411911F8011C60
:100BE000302907D04F4502DA17F1040F04DA01204B
:100BF00082460FE06D1EEEE7002F02DCED1B3E4447
:100C000003E0781CA84200DD7D1CB81B00F1010A3E
:100C10004FF000472078000703D4AA4501DB4FF0CE
:100C2000FF3A0021B7F1004F0DF143088DF8431052
:100C300024D002202B23002F01DA7F422D230A210A
:100C4000021EA0F1010000DC5FB197FBF1FC97FBF5
:100C5000F1F201FB1C7C17460CF1300C08F801CDB9
:100C6000EEE7A8F1010003702188090501D54521AF
:100C700000E06521A0F1010800F8011C09980FA906
:100C8000A1EB0807FF1D00B10120411901EBEA703B
:100C9000A1693844081A401EA0612078C00602D419
:100CA0002046AFF30080099828B1D4E9012190478C
:100CB000206A401C20622078C00622D52046AFF36F
:100CC00000801EE0002E04DBB34502DD01A8805D3C
:100CD00000E03020D4E901219047206A401C2062C6
:100CE000761CAAF101005FEA000A0AD100F0F8FAC6
:100CF000C0680168405CD4E901219047206A401C2B
:100D00002062281EA5F10105DCDC07E0D4E9012101
:100D100018F8010B9047206A401C2062381EA7F18A
:100D20000107F3DC2046AFF30080032011B041E659
:100D300001694A1C02610878704700B58FB0CDE99F
:100D400001310021059105497944CDE9031011468F
:100D50006846FFF7E1FB0FB000BD0000E5FFFFFFB5
:100D60000A6802F8010B0A607047D1E900239A4231
:100D700002D2531C0B601070704700002DE9FF4F2A
:100D800006468BB00878FF2806D0491C2D2805D0D0
:100D900000244FF0000908E000200CE00124F8E7EF
:100DA00009EB8903491C00EB43090878FF28F7D1B8
:100DB00014B1C9F100008146107800252C46AA46DE
:100DC00029462D2801D02B2804D1521C2D2813D0C0
:100DD000002082468B461078FF280FD04FF0000C81
:100DE0000A21521CA5FB017804FB018105FB0C11B3
:100DF000C5194BEB0104EEE70120EAE700210846A4
:100E00004FF00000BAF1000F02D000EB8000400864
:100E1000C0F38157012F01DD4FF0FF370E9955EADE
:100E2000040009EB01080BD04FF0020918F5FA7F16
:100E300016DA4FEACA70002F706008DD012007E063
:100E40004FEACA70C6E900B00FB0BDE8F08F0020CD
:100E5000306000F049FAC0F800901821084616E00A
:100E6000B8F5FA7F18DD002F02DAF748784401E080
:100E7000F6487844D0E90010C6E9001040EACA708C
:100E8000706000F031FAC0F80090142108460FB0ED
:100E9000BDE8F04F08F0D7BF002108464FF0000032
:100EA000B8F10001099002DAC7F1000200E03A4609
:100EB00001DAC8F1000106A800F062FC06AB93E875
:100EC000070003AB83E8070044F23E005BEA04013D
:100ED0000090584604D144F21E012C465D46009114
:100EE000210C0904014306D10099240444EA154465
:100EF0002D041039009104F07F41014306D100997F
:100F0000240244EA15642D020839009104F070416E
:100F1000014306D10099240144EA15742D01091FEB
:100F2000009104F04041014306D10099A40044EA35
:100F30009574AD00891E009104F00041084304D16E
:100F400000986D196441401E00904FF001033A462D
:100F50006846B8F1000FCDE9014503A902DD01F0B3
:100F60004EFA01E001F021FABAF1000F04460D46F5
:100F700001D084F00044002108464FF00000099998
:100F800040F2FF77484010F00C0F07D124F00040EA
:100F9000284303D0C4F30A50B84212D100F0A4F998
:100FA000C0F80090C4F30A50B8420AD1A848784467
:100FB000D0E90010C6E9001004F000410843706059
:100FC00042E7C6E900543FE72DE9FF4F1F464FF0C7
:100FD000000A4FF0FF38454691B0D7E90146CDF8F9
:100FE0003CA000F07DF9C0680168405C1090B969D0
:100FF00012986D1C8847396A814688470028F6D1C7
:10100000B9F1FF3F0AD0002E24F4D06411DDB9F10C
:101010002B0F08D0B9F12D0F0BD102E0404615B0CF
:1010200013E744F48064B96912986D1C8847761EF2
:101030008146600504A901D52D2000E02B20002E5B
:1010400001F1010B0DF130088DF810003FDDB9F111
:10105000690F08D0B9F1490F05D0B9F16E0F02D070
:10106000B9F14E0F1CD13B4601A8009580E8500213
:10107000DDE912126FF0020008F04EFFC11CCED164
:101080000EE0B96912986D1C884781461398761E48
:1010900044F4007405600F98401C002E0F9016DD7C
:1010A000B9F1300FEDD0B9F1780F02D0B9F1580F86
:1010B0000DD10F9801280AD13B46CDE90054DDE956
:1010C0001212001F029608F025FFC11CA7D110992B
:1010D00089453ED144F0800406E01399681CAAF1CA
:1010E000010A44F400740860B9696D1C1298761EF8
:1010F000884730288146F0D02BE01099894505D1EA
:10110000200603D4761E44F0800418E0484604F01C
:101110009EFF08B3761E0DF123018B4544F4007445
:1011200008D2A9F130000BF8010B200607D5AAF16F
:10113000010003E0200602D40AF101008246A00566
:1011400002D51399681C0860B96912986D1C88470C
:101150008146002ED1DC53E0002E51DDB9F1650F40
:1011600002D0B9F1450F4BD1A00549D5B9696D1C25
:101170001298761E24F440748847002E81460CDDB8
:101180002B2804D0B9F12D0F07D144F48074B9692C
:1011900012986D1C8847761E8146E00501D52D21E9
:1011A00000E02B2108F8011BCDF8008021E0761E1D
:1011B0000DF13901884544F400740CD2A9F13000D6
:1011C00010F0FF0088F8000002D10099884509D985
:1011D00008F1010806E0E00501D51E4801E042F2F1
:1011E0000F708246B96912986D1C88478146139822
:1011F0000560002E04DD484604F029FF0028D6D102
:10120000F96912988847FF2053468BF8000088F848
:10121000000000200A900B9004AA0CA90AA8FFF76E
:10122000ADFDA00502D46FF00100F8E614F0240F24
:1012300012D0E0071CD13868DDE90A12031D3B60BB
:101240000068C0E9001213E068A100005AA1000084
:101250001EA00000F1D8FFFF0AA9684604F0E4FED2
:10126000E00705D13868009A011D39600068026006
:101270002846D4E602681144137801601846704786
:10128000D1600549794451610449794411620021D2
:101290001161114600F0BAB8EDFFFFFFED0000004C
:1012A000426842B1016811F8013B23B1521EC0E906
:1012B0000012184670470121C160881E70474268BD
:1012C0005AB1C368016843B983688B4205D0491E8F
:1012D000521CC0E90012002070474FF0FF307047E9
:1012E000004870477851001000487047585100106E
:1012F00030B5B0F10A024FEA900E71F100034EEAE8
:10130000817EB0EB0E0061EB91014FEA101E4EEAB8
:10131000017E10EB0E0041EB11114FEA102E4EEA48
:10132000016E10EB0E0041EB11214FEA104E4EEA18
:10133000014E10EB0E0041EB1141401841F100014C
:101340004FEAD00040EA41704FEAD10110EB80052E
:101350004FEA810444EA907444EB01046D1944EBB4
:101360000404521BA3414FF0000348BF0A3200D5CA
:1013700030BD401C41F1000130BD10B5044600F005
:101380009BFA0068005D00F0010010BD2DE9F041FE
:101390001F46044603260168072A01F4006004DBA7
:1013A00008B116A505E016A503E008B115A500E0F3
:1013B00015A521F010002060A069C01EA0610FB12A
:1013C000401EA0612046AFF300804FB1D4E9012157
:1013D00038469047206A401C2062C01C206206E00C
:1013E000206AFAE7D4E9012115F8010B9047761E2F
:1013F000F8D22046AFF30080BDE8F0814E414E00A8
:101400006E616E00494E4600696E66002DE9F34F2D
:101410004FF0000A0C4656468DB001200C9001F1A9
:101420000C000B9062690B9801219047051E2DD08E
:10143000252D2CD0216A8847C0B162690B98012103
:101440009047216A88470028F7D16269411E0B98AE
:10145000904700E0761CA1690D988847216A88476B
:101460000028F7D1E1690D988847DBE7A1690D985D
:101470008847A842074601D1761CD3E7E1690D9859
:1014800088477F1C02D1BAF1000F6FD06BE162690F
:101490000B9800273D46394690472A2804D16269B7
:1014A0000B98012190470125DFF8D08262690B98E3
:1014B00001219047A0F130010A290AD24745E5DC15
:1014C00007EB870100EB4107303FDFD445F0100503
:1014D000ECE7E90601D46FF000476C280AD04C28ED
:1014E00014D0682815D06A280DD074281CD07A280A
:1014F0001AD01DE062690B98012190476C2802D038
:1015000045F0040514E045F002050DE045F0200526
:101510000AE062690B9801219047682802D045F0E3
:10152000080505E045F4006562690B9801219047C4
:10153000C4E9015765283DD019DC58287AD00CDC65
:10154000452837D004DC252826D041289ED131E01B
:1015500046282FD0472899D12CE05B2877D06128E6
:1015600028D063287CD0642823D15AE0F6E06F2885
:1015700048D008DC66281DD067281BD0692821D0F8
:101580006E2816D127E0702845D0732868D07528BA
:1015900047D078280DD14DE0A1690D9888472528BE
:1015A00005463FF469AFE1690D9888476D1C3FF42B
:1015B0006AAFD8E00D9923466A466FF0010008F043
:1015C000A7FCC5E045F0400023464FF000026060F4
:1015D000A80736D43EE0E8077FF447AF2068011D36
:1015E00021600068290501D506701BE7290701D590
:1015F000068017E7A90703D5F117C0E9006111E7D5
:1016000006600FE745F0400023464FF00802606097
:10161000A80716D41EE040F60E0125EA010060601E
:1016200016E045F0400023464FF00A026060A8072C
:1016300007D40FE045F040006060A80708D52346B6
:1016400010220D996FF00100AFF3008080E007E0F9
:10165000102223460D996FF00100AFF3008077E070
:101660004FF0000963284F46C8464B46CB4602D090
:101670005B2806D038E0E80601D40120A0600127ED
:1016800032E06269D4F80CB00B98012190475E28D3
:1016900007D14FF0010949466269D4F80CB00B98A4
:1016A0009047216939B900210A4603AB43F821204C
:1016B000491C0829FADBD8B3216949B308F10108AC
:1016C00062690B98012190475D28F4D1B9F1000FB0
:1016D00009D0002003A951F82020D24341F820204E
:1016E000401C0828F7DB03AB2069002820794FEA6B
:1016F00040701ED05B462246CDF80080CDE90197B0
:101700000D9900286FF0010020DAAFF300801FE090
:10171000C11703AA00EBD1614B1121F01F0102EBAD
:101720008302411A13680120884003431360C7E70E
:1017300019E00D99224600286FF00100009702DAA7
:10174000AFF3008004E0AFF3008001E0AFF300806E
:1017500000280ADA401C06D10C9820B14FF0FF3067
:101760000FB0BDE8F08F5046FAE7E90701D10AF162
:10177000010A064400200C9054E60000CCCCCC0CAE
:101780002DE9F047814616468AB0354878440DC8A1
:101790008DE80D0032487844801C03AC0DC884E805
:1017A0000D0041F69B300844372190FBF1F290FB8D
:1017B000F1F5A5F1800501FB12041B3C02D5644242
:1017C000012000E00020DFF898A080460027FA44BE
:1017D000AAF1BE0A0EE0E0070AD03246684607EBDF
:1017E000470101230AEB810100F0F4FD8DE80700B9
:1017F00064107F1C002CEED1194F7F44AE3F19E0DE
:10180000E80715D007EB04100DF1180A90E80E0058
:101810008AE80E00C068F04201D19819089032465B
:10182000012306A903A800F0D5FD03AB83E8070058
:101830006D10641C002DE3D14FF001033246694660
:10184000B8F1000F03A802D000F09AFD01E000F00B
:10185000C1FDC9E90001C9F808200AB0BDE8F08758
:10186000EC97000000487047585100107546FFF78C
:10187000F9FFAE4605006946534620F0070085464D
:1018800018B020B5FEF768FDBDE820404FF0000617
:101890004FF000074FF000084FF0000B21F0070158
:1018A000AC46ACE8C009ACE8C009ACE8C009ACE89B
:1018B000C0098D467047000010B5FFF711FD001DEF
:1018C00010BD00BF557800002DE9FF4F1F464FF0B7
:1018D0003C0987B04FF00042DDE9141001F1010826
:1018E000DDF858A002EA405003900020059083469E
:1018F000054604460490B969461E08988847AAF12F
:10190000010A0290BAF1000F3BDD02982E2815D093
:10191000102100F060FA00282EDB4FF0010B059932
:10192000014317D0B9F1000F0BDB4A46C11700F095
:101930003FFA05430C43A9F1040905E00120049096
:101940000BE008B145F0010501200590049820B98D
:10195000361D02E0049800B1361FB969089808F1F5
:1019600001088847BBF1000FAAF1010A0290C9D013
:101970000999C1F80080C5E70298702808D050285E
:1019800006D0F96908988847BBF1000F14D04FE0E2
:10199000002002900120BBF1000F049009D0B9692A
:1019A000089808F101088847AAF10109B9F1000F68
:1019B00007DCF969089888476FF001000BB0BDE8B3
:1019C000F08F2B2804D02D280CD14FF0FF3004903D
:1019D000B969089808F101088847A9F10109B9F126
:1019E000000FE6DD411CE4D00A2100F0F4F90028E4
:1019F000DFDB029908F1010801EB810100EB4100F6
:101A00000290B969089888470A2100F0E4F9099A18
:101A1000A9F10109B9F1000FC2F8008001DD002829
:101A2000E7DAF969089888470499029800FB01668B
:101A300055EA040004D004F04041090002D006E059
:101A4000039898E0A40044EA9574AD00B61E04F033
:101A50000041080002D16D196441761E159810F0FE
:101A6000240F03D04FF00B095C4803E04FF0280926
:101A70006FF07D008246564507DAAAEB06018944DD
:101A8000B9F1410F01DD4FF0410901200021A9F119
:101A9000010200F08DF9024628400B462140084320
:101AA00001D0012100E00021501E029143F1FF31DD
:101AB00028402140084301D0012000E00020029985
:101AC000834651EA0B014FD0002108464FF0000039
:101AD000039900F4400039B100EB80004FF440015D
:101AE00000EBD07001EA60008015012802DD4FF0A4
:101AF000FF3000E013D0401C36D0029860B3BBF139
:101B0000000F0CD14A460120002100F051F9284075
:101B10002140084301D0012000E00020E0B1012075
:101B20004A46002100F044F9034640190A46614143
:101B30002D1A8C4111D3B9F1400F09DD159810F021
:101B4000240F02D0AAF1340603E0AAF1170600E040
:101B5000761C00254FF0004406E05B1E42F1FF3288
:101B600020EA030521EA0204CAF10100B04206DAC4
:101B70001B49039808430190002000900EE0039A4F
:101B8000C4F3D321E80A0A43164940EA44500A4301
:101B90003146CDE90002684604F04FFA159810F07E
:101BA000240F0BD01598C00715D13868DDE9001255
:101BB000031D3B600068C0E900120CE002A8694602
:101BC00004F032FA1598C00705D13868029A011D51
:101BD0003960006802604046F0E6000002FCFFFF4A
:101BE0000000F07F0000F03F2DE9FF4F92461D46B8
:101BF00085B04FF00041DDE9124BDDE914727F1E24
:101C000001EA4B50414940F0FF4940EA01080021F8
:101C100022F020004928049102D04E2828D04CE020
:101C20003BA0012607C88DE80700A9690698641C37
:101C300088477F1E014606D41DF8060018B121F022
:101C4000200181420BD0E96906988847032E34D0E1
:101C5000082E32D06FF0010009B0BDE8F08F761C7D
:101C6000032E01D0082EE0D1601CCAF80000DCE78A
:101C7000A9690698641C88477F1E2AD420F020009A
:101C8000412826D1A9690698641C88477F1E20D464
:101C900020F020004E281CD1A9690698641C8847B2
:101CA0007F1E48F4002849F48009CAF8004001D496
:101CB000282806D0E969069888475FEACB7012D0D9
:101CC00022E0A9690698641C88477F1E01D4002879
:101CD00003DAE96906988847BCE72928F1D1641C32
:101CE000CAF80040E9E71BF0240F07D028680499E0
:101CF000031D2B600068C0E9001805E02868021D7C
:101D00002A600068C0F800902046A5E70000F07F38
:101D1000494E46494E4954590000000010B504464A
:101D2000AFF300802046BDE81040FEF7A1BA0000E6
:101D30004FF0013C50F8042B51F8043B9A4221D15A
:101D4000A2EB0C03934313EACC1317D150F8042BE6
:101D500051F8043B9A4215D1A2EB0C03934313EACA
:101D6000CC130BD150F8042B51F8043B9A4209D103
:101D7000A2EB0C03934313EACC13DBD04FF000002B
:101D8000704700BFD01A01BAB1FA81F101F0180111
:101D900022FA01F0CB40C1F12001DBB2C0B2C01A7F
:101DA0002CFA01F3D11A914311EAC311E6D170471D
:101DB000B2F120030AD5C2F1200301FA02F120FAA0
:101DC00003F300FA02F041EA0301704700FA03F15D
:101DD0004FF0000070473A2800D2303820F020023F
:101DE000412A01D3A2F13700884201D34FF0FF30DE
:101DF0007047000001491820ABBEFEE72600020034
:101E000070475FEA400C08BF91F0000F4FEA8C2347
:101E10004FEAC12243EA51514FEA1C5018BF00F566
:101E2000F0404FEA300018BF41F000415FEA6C5CBF
:101E300000F02980BCF1FF3F08BF40F080407047B0
:101E4000130C06BF12044FF0100C4FF0000C130ED1
:101E500004BF12020CF1080C130F04BF12010CF1A5
:101E6000040C930F04BF92000CF1020CD30F04BFBB
:101E700052000CF1010C11464FF00002A0F11F00BE
:101E8000A0EB0C00704711F0004F08BF704731F015
:101E900000413FF4D5AF0B0C06BF09044FF0100C06
:101EA0004FF0000C0B0E04BF09020CF1080C0B0FD5
:101EB00004BF09010CF1040C8B0F04BF89000CF165
:101EC000020CCB0F04BF49000CF1010CCCF1200334
:101ED000A0EB0C0022FA03F302FA0CF241EA030130
:101EE00000F10100704720F07F4C80EA030023F0EE
:101EF0007F47ACEB070303F57C5300F0004003F190
:101F0000FF032DE980494FEA154B09B44FEA14430A
:101F100025EA0B4E24EA03480FF2042606EB1327AA
:101F200049083E785FEA320203FB0667C7F50007FF
:101F300007FB06F64FEA54374FEAD64606F102068B
:101F400007FB066CCCF1005C4FEA1C472CEA074CFF
:101F500007FB06F40CFB06F504EB15464FEA961654
:101F600034BF00204FF000404FEAD13706FB07FC9A
:101F70004FEA1C4C0CFB0BF7D21B03FB0CF761EB7D
:101F800007010CFB0EF7B0EB074072EB17420CFB9E
:101F900008F734BFA2EB0742B2EB074261EB1741EF
:101FA0004FEA0C444FEA910706FB07FC4FEA1C4C32
:101FB0000CFB0BF7B0EBC74072EB573203FB0CF78F
:101FC00034BFA2EBC742B2EBC74261EB57310CFB07
:101FD0000EF7B0EBC70072EB57720CFB08F734BF7B
:101FE000A2EBC702B2EBC70261EB5771039F4FEA46
:101FF000816141EA921104EBCC044FEAD1374FEAF8
:10200000826206FB07FC42EA90124FEA80604FEAC8
:102010001C4C0CFB0BF7D21B03FB0CF761EB07010D
:102020000CFB0EF7B0EB074072EB17420CFB08F706
:1020300034BFA2EB0742B2EB074261EB17414FEA14
:102040008C554FEA910704EB9C2406FB07FC4FEAF2
:102050001C4C0CFB0BF7B0EBC74072EB573203FB89
:102060000CF734BFA2EBC742B2EBC74261EB57316A
:102070000CFB0EF7B0EBC70072EB57720CFB08F7C6
:1020800034BFA2EBC702B2EBC70261EB577115EB8D
:102090004C254FEA816141EA92114FEA82624FEA90
:1020A000D13742EA901206FB07FC44F100044FEAE4
:1020B00080604FEA1C4C0CFB0BF7D21B03FB0CF7A8
:1020C00061EB07010CFB0EF7B0EB074072EB174218
:1020D0000CFB08F734BFA2EB0742B2EB074261EBFF
:1020E000174115EB1C154FEA813141EA92414FEA45
:1020F000823242EA90424FEA80304FEA0C7644F155
:10210000000448EA03434EEA0B484FF0000EB2EBDE
:10211000080C71EB030724BF624639464EEB0E0EE6
:102120004FF0000B0018524149414BEB0B0BB2EB47
:10213000080C71EB03077BF1000B24BF62463946A4
:102140004EEB0E0E4FF0000B0018524149414BEB85
:102150000B0BB2EB080C71EB03077BF1000B24BFF8
:10216000624639464EEB0E0E51EA020718BF46F0A2
:10217000010616EB0E7655F1000254F1000103D56D
:10218000BDE88901BDE80088BDE88901BDE80048D7
:10219000B619524141EB0101A3F101037047808060
:1021A0007F7E7D7C7B7A79787776767574737271B1
:1021B00071706F6E6E6D6C6C6B6A6A696868676669
:1021C00066656464636362616160605F5F5E5E5DFB
:1021D0005D5C5C5B5B5A5A5959585857575656556F
:1021E00055555454535352525251515050504F4FD1
:1021F0004F4E4E4D4D4D4C4C4C4B4B4B4A4A4A4921
:102200004949484848474747474646464545454463
:10221000444444434343434242424241414100001B
:1022200046EA0646A3F570534FEA164646EA42567A
:102230004FEAD22242EA415210B54FEAD121A3F12E
:10224000010300F02FF820F0004000F1020C00F034
:10225000004701EB00501146BCF5006F40EA070053
:1022600000D210BDBAF1000F0AD01CB503B44FF074
:1022700004004FF004014FF000000FBCBDE8104017
:102280004FF00001BBF1010FB9BF04484FF0FF311F
:102290000348002140EA070010BD00BFFFFFEF7FA9
:1022A0000000F07F002B9C4630D477002BD01CB56B
:1022B0004FEA370703B44FF010004FF01001BAF1A6
:1022C000000F06D0BCF1000FDCBF40F0080040F06A
:1022D00008014FF000000FBCBDE810400BF1010BEE
:1022E000BBF1010F08BF5FEA170722BF12F101021D
:1022F00011F101014FF0004143F1000300F00040F3
:1023000043EA00007047F9D35708D0E746EA06468B
:1023100013F1400F4FEA16461FDD13F1200FDFBF08
:1023200016430A46002120335B42BED0C3F120078A
:1023300046EA064602FA07F74FEA164646EA070655
:10234000C3F1200722FA03F201FA07F721FA03F199
:102350004FF0000342EA0702A7E746EA020646EA10
:1023600006464FEA164646EA0106BCBF46EA06465E
:10237000360C4FF000034FF000024FF0000194E7DD
:102380002DE9804C9A46934670B491E8380007C80E
:1023900031EA400C48BF34EA430C03D5FFF7A3FDF4
:1023A000FFF780FFF0BCBDE8008C2DE9804C9A4619
:1023B000934670B491E8380007C831EA400C48BF32
:1023C00034EA430C03D5FFF78EFDFFF729FFF0BC7D
:1023D000BDE8008C2DE9804C9A46934670B491E894
:1023E000380007C810F0804F08BF13F0804F03D1AA
:1023F00000F01AF8FFF756FFF0BCBDE8008C2DE99D
:10240000804C9A46934670B491E8380007C810F0A3
:10241000804F08BF13F0804F03D100F005F8FFF79D
:10242000FFFEF0BCBDE8008C20F07F4780EA03008F
:1024300023F07F4C07EB0C03A3F57C5300F0004026
:10244000A3F1FE0392F0000F00F0B38095F0000FAF
:1024500000F077802DE901494FEA11404FEA144618
:1024600021EA004800FB06FC24EA064708FB06F6C2
:1024700007FB08F800FB07F718EB06484CEB164C77
:102480004FEA124B18EB07484FEA15464CEB174042
:1024900022EA0B4E0BFB06FC25EA06470EFB06F66E
:1024A00007FB0EFE0BFB07F71EEB064E4CEB164C24
:1024B0004FF000061EEB074E4CEB174B18EB0B08CA
:1024C00040F1000018EB0E0B58EB000840F1000043
:1024D0008F1A4FF000013CBFC943661B14BFB5EB18
:1024E000040C00213CBFC943F61B4FEA17444EEAD7
:1024F0008E0E27EA04454FEA1C4704FB07622CEACC
:10250000074C05FB07F70CFB05F604FB0CFC16EB70
:10251000074642EB174216EB0C4642EB1C421BEB04
:10252000060658EB0202414146EA9E0601D5BDE887
:102530000189B619524141EB0101A3F10103BDE844
:1025400001894FEA14454FEA114724EA054621EA7A
:10255000074C05FB07F406FB07F70CFB06F105FB30
:102560000CFC11EB074144EB17444FEA124711EB07
:102570000C4144EB1C4422EA074C05FB07F206FB26
:1025800007F70CFB06F605FB0CFC16EB074642EBC7
:10259000174216EB0C4642EB1C456A1854F1000139
:1025A00048BF7047B619524141EB0101A3F1010345
:1025B000704795F0000F37D04FEA11424FEA1447A9
:1025C00021EA024624EA074C02FB07F106FB07F763
:1025D0000CFB06F402FB0CFC14EB074441EB174127
:1025E0004FEA154714EB0C4441EB1C4125EA074C1C
:1025F00002FB07F506FB07F70CFB06F602FB0CFCDB
:1026000016EB074645EB174516EB0C4645EB1C420F
:10261000121951F1000148BF7047B619524141EB00
:102620000101A3F1010370474FEA14454FEA114736
:1026300024EA054621EA074C05FB07F106FB07F7EC
:102640000CFB06F24FF0000605FB0CFC12EB0742F8
:1026500041EB174112EB0C4251EB1C4148BF704754
:10266000921841EB0101A3F101037047464910B5EF
:102670004A6822F440324A604A6843681A434A6012
:1026800001684A6822F480724A6001684A680369F6
:1026900042EA03224A6001684A6822F040724A60B6
:1026A00001684A6883681A434A6001688A6822F4AC
:1026B00000628A6001688A68C3681A438A60816A16
:1026C0006FF07062D14201688A6822F070628A609D
:1026D00001688A680CD0836A1A438A6001688A6834
:1026E00022F040528A6001688A68C36A1A4301E096
:1026F00022F040528A6001688A6822F002028A60F1
:1027000001688A68037E42EA43028A6090F82010DA
:10271000002901684A680FD042F400624A600168EB
:102720004A6822F460424A6001684A68174C436A6A
:1027300004EB43331A4301E022F400624A6001686B
:10274000CA6A22F47002CA620168CA6A838B104C9A
:1027500004EB03531A43CA6201688A6822F40072C8
:102760008A6001688A6890F8303042EA43228A60C1
:1027700001688A6822F480628A6001688A68406918
:1027800042EA8020886010BD0023014000E0FFFF86
:102790000000F0FFFEE70000F0B587B00D460646EA
:1027A00003F07EFCB8B300240DF1040700F048F8F4
:1027B0003855641C052CF9DB9DF804009DF80510C4
:1027C0009DF8072008449DF80610114408449DF820
:1027D000081088421DD19DF80500D4B200909DF8E4
:1027E00004309DF8067012A2082103A8FDF73EFEF2
:1027F0003B460FA2082105A80094FDF737FE32469C
:102800000DA103A8FDF738FF2A460BA105A8FDF787
:1028100033FF002008E0FFE79FED080A4FF0FF308C
:1028200086ED000A85ED000A07B0C0B2F0BD0000D9
:1028300025642E2564000000256600000000C642C5
:102840002DE9F041104E00254FF4805739463046AF
:1028500000F030FB0028F9D13946304600F02AFB61
:102860000028F9D0282003F0F9FB6006040E394651
:10287000304600F01FFB08B144F001046D1C082D28
:10288000E4DB2046BDE8F08100140240704772B6D8
:10289000FEE7000078B50024009490F83C20012A5F
:1028A00019D0012280F83C200A6807230568092A0C
:1028B00013D9EE680A3A02EB420293409E43EE605F
:1028C0000B788A680A3B03EB43039A400368DD6890
:1028D0002A43DA6010E0022078BD2E6902EB420242
:1028E00093409E432E610B788A6803EB43039A4022
:1028F00003681D692A431A614A681F23072A13D2F5
:1029000005686E6B521E02EB820293409E436E631B
:102910000A8893B20A79521E02EB8202934002683F
:10292000556B2B43536327E005680D2A12D22E6B9B
:10293000D21F02EB820293409E432E630B790A88DA
:10294000DB1F92B203EB83039A4003681D6B2A439B
:102950001A6311E0EE6A0D3A02EB820293409E4345
:10296000EE620B790A880D3B92B203EB83039A4027
:102970000368DD6A2A43DA621B4B0568194A9D42E7
:102980000AD10D68122D07D1556825F40005556050
:10299000556845F48005556005689D421DD1134D6D
:1029A0000B68AB4201D0112B17D1536823F480037D
:1029B0005360536843F4000353600968A9420CD183
:1029C0000B490C4A0968B1FBF2F101EB81014900A6
:1029D00000E0491E00910029FBD180F83C40002016
:1029E00078BD0000002301400020014012000010CB
:1029F0003C00001040420F000068C06C704770B58A
:102A000004004FF0000503D0206C002610B107E051
:102A1000012070BD204600F01DF8666484F83C601B
:102A2000206CC00610D4206C20F4885040F00200C6
:102A300020642046FFF71AFE6664206C20F0020036
:102A400040F00100206400E0012584F83C60284645
:102A500070BD000010B586B0044614216846FDF72D
:102A6000CAFE1149206888421CD110480021026822
:102A700042F480720260006800F4807005900B4898
:102A80001438026842F001020260006800F00100A0
:102A90000590082000900320CDE901016946044813
:102AA00000F0EEF806B010BD0020014044380240AE
:102AB000000002402DE9F041044600680D4681689F
:102AC0004FF0000749050BD58068C00508D5206C7C
:102AD00040F02000206484F83C700120BDE8F081C3
:102AE00000F0FAF9064613E0681C11D025B100F099
:102AF000F3F9801BA8420BD920680068800707D42F
:102B0000206C40F00400206484F83C700320E5E76A
:102B1000206800688007E7D521686FF01200086020
:102B2000206C40F4007020642068816811F0405FE0
:102B300013D1217E89B9C16A11F4700F02D0806867
:102B400040050AD4206C20F480702064206CC004FE
:102B500003D4206C40F0010020640020BEE7000098
:102B600018B50021009190F83C20012A07D00122DD
:102B700080F83C2002689368DB0702D011E0022055
:102B800018BD936843F0010393602E4A2E4B1268E0
:102B9000B2FBF3F202EB420200E0521E0092002A66
:102BA000FBD102689368DB0742D0036C40F20164FA
:102BB000A34343F48073036453685B0505D5036C3A
:102BC00023F4005343F480530364036CDB0404D503
:102BD000436C23F00603436400E0416480F83C103A
:102BE0001A496FF02203136049680068CA06184941
:102BF00006D0884224D1816811F0405F13D01FE0D5
:102C00008842F8D0134A904203D1D1F80423D20667
:102C1000F1D0114A904213D1D1F8041301F01F01F1
:102C20001029E8D30CE0816841F08041816007E021
:102C3000016C41F010010164416C41F001014164FB
:102C4000002018BD3C00001040420F00002301404E
:102C500000200140002101400022014070B50446DF
:102C600000F03AF90546601C02D00448007804449C
:102C700000F032F9401BA042FAD370BD30000010C2
:102C80002DE9F84FDFF8F8A10022012403254FF0C9
:102C90000F090AF1040BAAF1040E00BF0B6804FA35
:102CA00002F63340B34270D10F7907F00307012FCA
:102CB00001D0022F16D187684FEA420805FA08FCB6
:102CC00027EA0C07D1F80CC00CFA08FC4CEA070CF8
:102CD000C0F808C04768B7430E79C6F3001696409F
:102CE0003E4346600E79F643B6070AD0C7684FEAFE
:102CF000420C05FA0CF6B7438E6806FA0CF63E4312
:102D0000C6600E7906F00306022E10D1D60800EB3D
:102D10008608D8F8206057074FEAD76C09FA0CF7F5
:102D2000BE430F6907FA0CF73743C8F820700668EE
:102D30004FEA420C05FA0CF7BE430F7907F0030780
:102D400007FA0CF7374307604E6816F4403F1CD073
:102D50004C4E376847F480473760366822F00307E7
:102D600006F480460096484E07EB060CDCF808682F
:102D700097073F0F09FA07F826EA0806DFF80C81E3
:102D8000404503D14FF0000841E072E0DFF80081D8
:102D9000404502D14FF0010839E0DFF8F8804045A6
:102DA00002D14FF0020832E0DFF8EC80404502D15A
:102DB0004FF003082BE0DFF8E480404502D14FF0EC
:102DC000040824E0DFF8D880404502D14FF0050820
:102DD0001DE0DFF8D080404502D14FF0060816E034
:102DE000DFF8C480404502D14FF007080FE0DFF85C
:102DF000BC80404502D14FF0080808E0DFF8B08001
:102E0000404502D14FF0090801E04FF00A0808FAE6
:102E100007F848EA0608CCF80888DAF80060574650
:102E2000D1F804C09E435FEACC2C00D51E433E601F
:102E3000DBF800605F46D1F804C09E435FEA8C2C4B
:102E400000D51E433E60DEF800607746D1F804C02E
:102E50009E435FEA8C3C00D51E433E60084F083F0E
:102E60003E68D1F804C09E435FEACC3C00D51E43C7
:102E70003E60521C102AFFF411AFBDE8F88F00002D
:102E8000083C01404438024000300140000002404C
:102E90000004024000080240000C02400010024002
:102EA0000014024000180240001C024000200240B2
:102EB000002402400069084000D0012070474269A8
:102EC00021EA02030A4043EA0241816170470AB1E4
:102ED000816170470904FBE7014880687047000082
:102EE0003000001090F83D20202A01D002207047C9
:102EF000242280F83D200268136823F00103136048
:102F00000268536A23F0100353620268536A0B434A
:102F1000536201680A6842F001020A60202180F8C9
:102F20003D100020704790F83D20202A01D002205B
:102F30007047242280F83D200268136823F00103C3
:102F4000136003685A6A22F00F020A4391B2596271
:102F500001680A6842F001020A60202180F83D10F1
:102F60000020704770B5040025D094F83D0000257E
:102F700020B984F83C50204600F04EF9242084F813
:102F80003D002068016821F00101016020680168AE
:102F900041F4004101602068016821F400410160B2
:102FA00000F0A2FB4D4A6168914201D84C4900E013
:102FB0004C49884201D2012070BD4B492368B0FBC7
:102FC000F1F15E6826F03F060E435E60636893424F
:102FD00006D94FF4967359434FF47A73B1FBF3F16A
:102FE0002368491C1E6A26F03F0631431962616856
:102FF000914210D84900401EB0FBF1F2521CC2F3BE
:103000000B02042A01D2042022E0B0FBF1F0401CA4
:10301000C0F30B001CE0A268F2B301EBC10303EBA9
:103020000116431EB3FBF6F35B1C43F480431B0500
:1030300049D092B301EBC10202EB0111401EB0FB7B
:10304000F1F0401CC0F30B0040F4804040F400401D
:103050002168CA694CF6FF739A431043C861D4E9EA
:10306000071001432068026822F0C002114301608A
:10307000D4E9030101432068826848F2FF339A4390
:1030800011438160D4E9050108432168CA6822F030
:10309000FF021043C86001E00EE016E020680168FE
:1030A00041F0010101602564202084F83D00256382
:1030B00084F83E50002070BD01EB4106431EB3FB77
:1030C000F6F35B1CB3E70120C2E701EB4101401EB0
:1030D000B0FBF1F0401CC0F30B00B7E7A086010085
:1030E00080841E0000093D0040420F002DE9F84F8A
:1030F0001F4690468A460446DDF82890FFF7ECFE0E
:10310000054694F83D0020287FD11923012240492B
:103110002046009500F0E4FF002876D194F83C00AA
:10312000012872D0012084F83C0020680168C9079A
:1031300003D1016841F0010101602068016821F4B8
:1031400000610160212084F83D00102084F83E00D9
:1031500000262664C4F824806785608D20852D486C
:10316000E0622B464A465146204600F045FF90B9A2
:10317000206841698069009036E02A464946204629
:1031800001F02DF850B1206C042804D120680168AA
:1031900041F4007101600120BDE8F88F606A216888
:1031A00000780861606A401C6062618D491E61851B
:1031B000218D491E89B2218522685369DB435B0753
:1031C0000BD451B100781061606A401C6062608D60
:1031D000401E6085208D401E20852A464946204697
:1031E00000F058FF0028CED1208D0028C5D154F81A
:1031F0003D0B016841F400710160202004F81E09B4
:10320000E67766770020C7E7FFE70220C4E7000003
:10321000020010000000FFFF10B586B00446142124
:103220006846FDF7E8FA14492068884221D113481E
:103230000021026842F002020260006800F0020011
:1032400005904FF4407000901220CDE90101032059
:1032500003900420049069460948FFF711FD0748D0
:103260001030016841F400110160006800F40010A2
:10327000059006B010BD00000054004030380240F8
:10328000000402400248816802781144816070475E
:10329000300000100B4810B5016841F40071016066
:1032A000016841F480610160016841F4807101604E
:1032B000032000F099F80F2000F006F800F04AF81B
:1032C000002010BD003C024030B505461C4887B0C8
:1032D0000024016841F001010160006806A900F0C6
:1032E0000100009001A800F0DFF900F00DFA154987
:1032F0004000B0FBF1F11548134A491E026040F24C
:10330000E732C0E90324C0E90114846100F03CFC09
:10331000040012D10D4800F081FC04000DD11920E9
:1033200000F034F8102D07D200222946192000F0B1
:103330003BF80748056000E0012407B0204630BD97
:103340004438024040420F0000000140BC0700101A
:10335000340000100C4882B0016841F480410160E3
:10336000006800F4804000900748001F016841F0A9
:10337000805101600068002200F0805000900F2111
:10338000901E02B000F010B844380240002809DB5B
:1033900000F01F02012191404009800000F1E0206F
:1033A000C0F8001170470000F0B40E4B1B680C46CB
:1033B000C3F30223C3F10705042D00D90425191D09
:1033C000072901D2002300E0DB1E012606FA05F1E1
:1033D000491E214099409E40761E16403143F0BC64
:1033E00001F049BC0CED00E0064900F00702086856
:1033F0004FF6FF03184040EA0220034A10430860DA
:10340000704700000CED00E00000FA052DE9F041E6
:103410008AB0040005D094F8BD042668002520B1C8
:1034200008E001200AB0BDE8F08184F8BC542046D1
:1034300000F05EF8032084F8BD04F06BC00500D4F2
:103440002561206801F08CFB04F1100128228846D8
:103450006846FDF774F994E80F0001F05FFA022660
:10346000C8BB0021206801F0BFFB002001270EE04F
:1034700000EBC00104EB810181F83D7001F83C0FC5
:1034800008810D71CD600D61401CC0B28D61616815
:103490008142EDD8002011E000EBC00104EB810176
:1034A00081F87D5281F87C0281F88052C1F88852FF
:1034B000C1F88C52401CC0B2C1F89452616881427C
:1034C000EAD8282241466846FDF739F994E80F000A
:1034D00001F08CFA10B184F8BD64A2E784F838508A
:1034E00084F8BD74206801F073FA00209AE70000A8
:1034F00030B587B0044614216846FDF77CF9206892
:10350000B0F1A04F30D119480024016841F0010109
:1035100001600068164D00F0010005904FF4C8509E
:1035200000900220CDE90104032003900A200490BA
:1035300069462846FFF7A4FB6815CDE900046946F3
:1035400028460294FFF79CFB0848001D016841F0E3
:103550008001016005481430016841F48041016038
:10356000006800F48040059007B030BD303802405C
:10357000000002402DE9F0470E46050065D0DFF857
:103580001481D8F80000F7B200F00F00B04207D263
:1035900088F80070D8F8000000F00F00B04254D155
:1035A00028683D4C810712D5400703D5206840F4B8
:1035B000E05020602878000703D5206840F4604080
:1035C00020602068A96820F0F00008432060287877
:1035D000C0072DD0304968680839012812D0022868
:1035E00013D0032811D00968890700292DDA216832
:1035F00021F0030101432160FFF76EFC814641F297
:10360000883A0EE009688903EFE709688901ECE769
:10361000FFF762FCA0EB0901514502D90320BDE888
:10362000F0872068696800F00C00B0EB810FEFD1E3
:10363000D8F80010404601F00F01B14207D90770D9
:10364000006800F00F00B04201D00120E7E72878C1
:10365000400705D52068E96820F4E0500843206061
:103660002878000706D52068296920F4604040EAE0
:10367000C100206000F058F82168084AC1F3031126
:10368000515CC8400649086006480068FFF71CFE08
:103690000020C4E7003C024008380240709F000848
:1036A0003C000010340000100F2202600C4A136826
:1036B00003F003034360136803F0F00383601368AF
:1036C00003F4E053C36012684FF4E05303EAD202FC
:1036D00002610448006800F00F00086070470000B5
:1036E00008380240003C0240044805490068096867
:1036F000044AC1F38221515CC84070473C0000106D
:1037000008380240809F000804480549006809689D
:10371000044AC1F34231515CC84070473C0000107C
:1037200008380240809F0008154810B5006810F066
:103730000C02144813D04110042A0FD0082A0ED1CD
:103740000F4C241F2268236802F03F025B0207D55A
:103750002068C0F38810A0FB010106E0084610BDF8
:103760002168C1F38811A1FB00010023FCF706FECC
:103770002168C1F30141491C4900B0FBF1F010BDC3
:10378000083802400024F4002DE9F84F04006ED000
:103790002078DFF84C93C007A9F104054AD009F15D
:1037A00004000168C1F38101012908D00068C0F359
:1037B000810002280AD1D9F80000400206D5286805
:1037C000800337D560680028E1D033E06068B0F549
:1037D000803F10D0B0F5A02F286810D020F48030A2
:1037E0002860286820F4802028606068A8B1FFF76E
:1037F00073FB06460DE0286840F48030F4E740F49F
:1038000080202860F7E700BFFFF766FB801B642875
:1038100073D828688003F7D50CE0FFF75DFB0646F8
:1038200005E000BFFFF758FB801B6428F0D828682C
:103830008003F7D42078DFF8AC8280074FF0000ACD
:103840003ED5A748001D016811F00C0F08D0006894
:10385000C0F3810002280BD1D9F80000400207D440
:103860002868800716D5E068012800D112E033E10E
:10387000E068B8B10120C8F80000FFF72DFB06464C
:1038800005E000BFFFF728FB801B0228C0D828688E
:103890008007F7D52868216920F0F80040EAC100C8
:1038A00028600DE0C8F800A0FFF716FB064604E00C
:1038B000FFF712FB801B02281FD828688007F7D467
:1038C0002078000722D5864F87486169703771B12B
:1038D00001210160FFF700FB064604E0FFF7FCFA58
:1038E000801B022809D838688007F7D50EE0C0F899
:1038F00000A0FFF7F1FA064605E082E0FFF7ECFAD8
:10390000801B02287DD838688007F7D420784007CC
:1039100068D5DFF8CCB100270BF13C0BDBF80000D9
:10392000C0000BD4DBF8001041F08051CBF8001040
:10393000DBF80000012700F0805000906B4E3068EB
:10394000C00510D4306840F480703060FFF7C4FACE
:10395000009005E0FFF7C0FA0099401A022850D8FD
:103960003068C005F6D55E4EA0686C3601280FD0D1
:103970000528306810D020F001003060306820F059
:1039800004003060A068B8B1FFF7A6FA00900FE01D
:10399000306840F00100F4E740F004003060F7E7E1
:1039A000FFF79AFA0099411A41F28830814266D8AD
:1039B00030688007F4D50EE0FFF78EFA009007E03C
:1039C000FFF78AFA0099411A41F28830814256D8AD
:1039D00030688007F4D42FB1DBF8001021F080515B
:1039E000CBF80010A069C8B33D49091D0968C1F3AF
:1039F000810102294AD00228504607D0C8F8600049
:103A000000E03CE0FFF768FA04463BE04746C8F8B0
:103A10006000FFF761FA064605E000BFFFF75CFAB9
:103A2000801B02282BD828688001F7D4D4E907012D
:103A30000843A16A2E4A490802EB0141626A41EA41
:103A40008211084394F82C1040EA0161C9F8001073
:103A500001203866FFF740FA044606E03EE000BF6A
:103A6000FFF73AFA001B022809D828688001F7D529
:103A700034E000BFFFF730FA001B022802D9032010
:103A8000BDE8F88F28688001F4D427E00128F7D03A
:103A9000D9F80000E26900F4800191421CD1226A49
:103AA00000F03F01914217D147F6C071626A0140B0
:103AB000B1EB821F10D1A26A4FF0FF3300F4403106
:103AC00003EB5202B1EB024F06D194F82C1000F038
:103AD0007060B0EB016F01D00120D1E70020CFE78B
:103AE0000438024000004742800E47420070004008
:103AF0000000FFFF7047704770B590F83C20012A26
:103B000032D0012480F83C40022280F83D20036836
:103B10005A689D6822F070060A6832435A60134B57
:103B200002689A4214D0B2F1804F11D0104B9A42E1
:103B30000ED0104B9A420BD00F4B9A4208D00F4B2D
:103B40009A4205D00E4B9A4202D00E4B9A4204D1B3
:103B5000496825F080031943916080F83D400021B9
:103B600080F83C10084670BD022070BD0000014086
:103B70000004004000080040000C00400004014028
:103B8000004001400018004010B5040003D094F834
:103B90003D0010B107E0012010BD002084F83C007A
:103BA000204600F01FF8022084F83D00211D206807
:103BB00000F094FD012084F8460084F83E0084F86B
:103BC0003F0084F8400084F8410084F8420084F803
:103BD000430084F8440084F8450084F83D00002048
:103BE00010BD000008B50068B0F1804F12D10A483E
:103BF000016841F0010101600068002200F001004D
:103C0000009005211C20FFF7CFFBBDE808401C20D9
:103C1000FFF7BCBB08BD00004038024090F83D10E3
:103C2000012901D001207047022180F83D10016870
:103C3000CA6842F00102CA6000681149884214D083
:103C4000B0F1804F11D00F4988420ED00E49884202
:103C50000BD00E49884208D00D49884205D00D4945
:103C6000884202D00C49884204D1816801F00701E2
:103C7000062903D0016841F001010160002070476E
:103C8000000001400004004000080040000C00401B
:103C900000040140004001400018004070B5044697
:103CA00090F83C000025012817D0012684F83C60DC
:103CB000022084F83D002068826822F0770222F416
:103CC0007F4282600868502838D00DDC20284FD011
:103CD00005DC90B3102811D14AE0022070BD3028D5
:103CE00046D040280AD13BE060282FD070280DD064
:103CF000B0F5805F03D0B0F5005F12D0012584F8E5
:103D00003D60002084F83C00284670BDCB68D1E9B6
:103D10000121206800F046FD2068816841F07701AC
:103D200009E0CB68D1E90121206800F03BFD206863
:103D3000816841F480418160E1E719E0CA6849681F
:103D4000206800F041FD5021206806E0CA684968FB
:103D5000206800F04AFD6021206800F02DFDCEE7CC
:103D6000CA684968206800F02FFD40212068F4E708
:103D7000226801461046F0E7704770B504460068B7
:103D800001694FF00005C943890715D4C168C943CB
:103D9000890711D4E91E016101202077206880691C
:103DA0008007204602D0FFF7E7FF04E000F098F814
:103DB000204600F096F8257720680169C943490735
:103DC00017D4C168C943490713D46FF004010161D6
:103DD000022020772068806910F4407F204602D0BE
:103DE000FFF7CAFF04E000F07BF8204600F079F806
:103DF000257720680169C943090716D4C168C943FA
:103E0000090712D46FF008010161042020772068AF
:103E1000C0698007204602D0FFF7AEFF04E000F043
:103E20005FF8204600F05DF8257720680169C943F6
:103E3000C90617D4C168C943C90613D46FF010016D
:103E40000161082020772068C06910F4407F204677
:103E500002D0FFF791FF04E000F042F8204600F0A6
:103E600040F8257720680169C943C90708D1C168AE
:103E7000C943C90704D1891E0161204600F032F808
:103E800020680169C943090609D4C168C943090604
:103E900005D46FF0800101612046FFF72BFE2068FA
:103EA0000169C943490609D4C168C943490605D413
:103EB0006FF040010161204600F01EF820680169A2
:103EC000C94389060BD4C168C943890607D46FF07A
:103ED000200101612046BDE87040FFF70CBE70BDB7
:103EE0007047704700680349884201D1FFF7CAB99B
:103EF0007047000000000140704770B5040004D016
:103F000094F83D00002510B106E0012070BD84F852
:103F10003C50204600F022F8242084F83D00206820
:103F2000C16821F40051C160204600F071FC206896
:103F3000016921F4904101612068416921F02A0161
:103F400041612068C16841F40051C16025642020AE
:103F500084F83D0084F83E00002070BD10B586B0A6
:103F6000044614216846FCF746FC14492068884240
:103F700021D113480021026842F4802202600068C7
:103F800000F4802005900E481038026842F00802C4
:103F90000260006800F0080005904FF44070009047
:103FA0000220CDE901010320039007200490694617
:103FB0000448FEF765FE06B010BD00000048004052
:103FC00040380240000C0240FEE701684A69D243D3
:103FD00052050FD46FF480624A61002140F8301F0F
:103FE000202242738173026942F00402026101736C
:103FF0000120704700207047F8B50446C06A1E468D
:104000000D461746082807D0012805D010F5803F37
:1040100002D0206B122804D12068016841F480711D
:104020000160134600224FF001112046009600F077
:1040300057F840B120680068C00502D54FF4007001
:1040400020640320F8BD2069B0F5804F0ED0062013
:10405000216800EAD51040F0F000086133463A4686
:104060000B49204600F070F878B902E005F0FE0038
:1040700000E0E8B221680861054933463A46891FE5
:10408000204600F061F80028DCD00120F8BD0000D7
:104090000800010070B516460D4604460DE02046A6
:1040A000FFF793FF08B1012070BD681C05D0FEF733
:1040B00013FF801BA84207D835B120684069C04370
:1040C0004007ECD4002070BD002044F8300F2021C0
:1040D0006173A073216941F0200121612073E2E73F
:1040E0002DE9F0471E4690460D460446C1F30747AA
:1040F000DDF8209008E0701C06D0FEF7EDFEA0EB86
:104100000900B0420FD876B12068012F18D080691D
:1041100025EA00000004000C14D000214145EAD03B
:104120000020BDE8F087002044F8300F20216173A3
:10413000A073216941F02001216120730120F0E783
:104140004069E5E70121E9E72DE9F0479A46914604
:104150000E46044600254FF02008C1F3074725E02E
:1041600020684069C043400514D42068016841F4C8
:104170000071016021686FF480604861256384F8F4
:104180003D8084F83E50206C40F00400206484F8A8
:104190003C501FE0B9F1FF3F08D0FEF79DFEA0EBB9
:1041A0000A0149450CD8B9F1000F09D02068012F48
:1041B00013D0806926EA00000004000C0BD0CFE782
:1041C00044F8305F84F80D80A573206940F020002A
:1041D000206125730120BDE8F0874069EAE770B5EA
:1041E00016460D4604460DE02046FFF7EEFE08B1E8
:1041F000012070BD681C05D0FEF76EFE801BA84232
:1042000007D835B120684069C0430006ECD40020CF
:1042100070BD002044F8300F20216173A073216924
:1042200041F0200121612073E2E7000028B101285C
:1042300005D0022806D000207047044804E0034857
:104240000C3001E00148183000F002B8CC0000103A
:1042500010B504462DED088BB0EE408A006805F0DD
:1042600077FD41EC190BA06805F072FD41EC1A0BCB
:10427000606805F06DFD41EC1B0B18EE100A05F0AF
:1042800067FD41EC100B00F0EBFD53EC1B2B51ECE8
:10429000100B05F073FC53EC1A2B05F04DF853ECA2
:1042A000192B04F08DFF41EC110B9FED060B00F074
:1042B000BBFFBDEC088B51EC100BBDE8104005F0C6
:1042C000CFB90000000000000000244010B5002419
:1042D0002DED028B9FED0B8A0B48FEF78DFB00F056
:1042E00015F830EE088A3C210748FEF7E3FB641C12
:1042F000052CF1DBF1EE040A88EE200ABDEC028BFE
:1043000010BD00000000000088010010A0F6FF7141
:10431000494200EE101AF1EE040AB8EEC00A60EE4F
:10432000200A00EE100AB8EEC01A80EE810A70472B
:104330007FB5002415480094019402941249039417
:10434000016001254FF480310561C0E90114057653
:1043500080F820400E49C0E90A14C561C46080F8A5
:1043600030404561FEF74BFB08B1FEF790FA0320A1
:10437000CDE90005694602940448FEF78BFA00284F
:1043800001D0FEF784FA7FBD0020014088010010B3
:104390000100000F10B5044A0021044802F054F84F
:1043A0000349086010BD00004C9F0008FD4500084F
:1043B0002C000010F0B587B014216846FCF71BFAFA
:1043C0003B480024016841F004010160016801F0EC
:1043D00004010591016841F080010160016801F06C
:1043E00080010591016841F001010160016801F05F
:1043F00001010591016841F002010160016801F0CD
:1044000002010591016841F020010160016801F09D
:1044100020010591016841F008010160016801F087
:1044200008010591016841F0400101600068214EDA
:1044300000F0400044F281050590002229463046F4
:10444000FEF745FD1C4F002240213846FEF73FFD98
:104450004FF4005000904FF48810CDE901046946F4
:104460001648FEF70DFC00950125CDE9015469467B
:1044700030460394FEF704FC2803CDE900046946A6
:104480000F480294FEF7FCFB40200090CDE9015458
:10449000694638460394FEF7F3FB8020CDE900041B
:1044A000694638460294FEF7EBFB07B0F0BD00000A
:1044B0003038024000040240001802400008024068
:1044C00000140240144810B51249016013494160BC
:1044D00000214FF480428160C0E903124161816193
:1044E000C1610162FEF73EFD08B1FEF7D0F900217F
:1044F0000948FEF7F7FC08B1FEF7C9F900210648A4
:10450000FEF711FD002803D0BDE81040FEF7BFB94B
:1045100010BD000000540040D0010010801A0600B9
:1045200010B586B0002416480094019402940394B8
:1045300004944FF08041059401605321C0E90114B7
:10454000611EC0E903148461FFF71EFB08B1FEF78A
:104550009EF94FF48050009069460948FFF79EFB92
:1045600008B1FEF794F9049404A905480594FFF7EF
:10457000C3FA002801D0FEF78AF906B010BD00008A
:10458000240200100C4810B50A4901604FF4E131D3
:104590004160002181600C22C160C0E90412816188
:1045A000C161FFF7AAFC002803D0BDE81040FEF768
:1045B0006EB910BD004800406C0200100D4810B5E7
:1045C0004FF0A04101600421416002220021C0E9B6
:1045D000032182610122C0E907214162C0E90B2168
:1045E000FEF714FF002803D0BDE81040FEF74FB9D6
:1045F00010BD0000B0020010FEE7FEE7012001F050
:10460000E7FEFBE710B54FF0E020006904F07CFB0B
:10461000012803D0BDE8104003F0C2BF10BD000068
:1046200030B593B030216846FCF7E5F814210CA8AA
:10463000FCF7E1F81D480025016841F08051016058
:10464000006800F0805011901948016841F4404121
:1046500001600068022400F44040119001200090A5
:10466000000401908001CDE9064004200890A820B4
:10467000CDE9090407200B906846FFF785F808B1DB
:1046800072B6FEE70CA90F2081E831004FF4A0506C
:104690000F904FF48050109005210CA8FEF76AFF90
:1046A000002801D072B6FEE713B030BD403802409A
:1046B000007000400248016841F4700101607047D9
:1046C00088ED00E00148FFF758BB0000BC07001070
:1046D0000148FFF752BB000024020010F0B5026849
:1046E000254C264D264E274F274B4FF0804CA0429D
:1046F00009D0604507D0A84205D0B04203D0B842E7
:1047000001D0984204D122F0700E4A6842EA0E02AB
:10471000A0421BD0604519D0A84217D0B04215D096
:10472000B84213D0984211D0184DA8420ED0184D5F
:10473000A8420BD0174DA84208D0174DA84205D06B
:10474000164DA84202D0164DA84203D122F440755E
:10475000CA682A434D6922F080022A4302608A68AF
:10476000C2620A688262A04201D0984201D10969FE
:10477000016301214161F0BD0000014000040040DF
:1047800000080040000C00400004014000400140CF
:10479000004401400048014000180040001C004057
:1047A0000020004010B5846842EA032224F47F44CC
:1047B0000A432243826010BD826822F070020A43DD
:1047C00042F007018160704710B5036A046A24F063
:1047D00001040462846924F0F00444EA021423F022
:1047E0000A020A438461026210BD10B5036A23F015
:1047F000100303628369046A23F4704343EA0232BC
:1048000024F0A00343EA01118261016210BD00009F
:1048100070B5044600680169E26821F44051114313
:1048200001612169A068E269084361691143084395
:104830002168CA6849F20C639A430243CA6020683F
:104840004169A26921F440711143416131492068F5
:10485000884202D03049884202D1FEF755FF01E07C
:10486000FEF742FFE2690023192164253226B2F5E2
:10487000004F626828D0A0FB0101930F9200FBF764
:104880007DFD0146B0FBF5F06FF01802504301EBDF
:10489000800006EB0010B0FBF5F000F0F002B1FB79
:1048A000F5F002EB0012B1FBF5F06FF0180358437E
:1048B00001EB800006EB0010B0FBF5F000F00F00FC
:1048C00021681044886070BDA0FB010192185B4113
:1048D000FBF754FD0146B0FBF5F00201B1FBF5F02A
:1048E0006FF01803584301EB800006EBC000B0FBEB
:1048F000F5F000F0F80002EB4002B1FBF5F0584390
:1049000001EB800006EBC000B0FBF5F000F0070003
:10491000D6E70000001001400014014070B50446C5
:1049200006990A9E049D0D98012916D0E06840F072
:104930004000E060204600F02BF8A16B1EB321F48C
:104940008031A163012D07D1A16841F00601A1606A
:10495000A16841F02001A16070BDA16B21F48031FC
:10496000A163E168094A1140E160E16821F4401166
:10497000E160012803D1E06840F48010E060204647
:1049800000F006F8DEE741F48031DAE7BFFFBDFF53
:1049900008B500220D490092009B5B1C00938B42DE
:1049A0000CD80369002BF7DA0092026942F0010289
:1049B0000261009A521C00928A4201D9032008BD6C
:1049C0000269D207F5D1002008BD0000400D0300A8
:1049D000D0F8001E21F00301C0F8001ED0F8041822
:1049E00041F00201C0F80418002070472DE9F04F93
:1049F00000250E460446DDF82CC0DDF824B0109FDB
:104A00002846294604EB8002C2F80411401C0F28F6
:104A1000F8D32046C7B1806B20F40012A263A06BCC
:104A200040F40022A26308468846C4F8000ED4F879
:104A300000182046C4F80018BCF1010F16D0D0F8B9
:104A4000001841F0030116E0D0F8040840F002021B
:104A5000C4F80428A06B40F40012A263A06B20F4F9
:104A60000022A263A06B20F48022DBE7D0F80018BC
:104A70000BB141F00101C0F80018102100F094F8CA
:104A800000B10125204600F071F800B10125404633
:104A9000C4F81088C4F81488C4F81C8800214FF0AA
:104AA00000694FF0904A4FF67F3314E004EB411257
:104AB000D2F800C9BCF1000F06DA11B1C2F800A9A2
:104AC00004E0C4F8009901E0C2F80009C2F8100936
:104AD000C2F80839491C8E42E8D8002115E000BF11
:104AE00004EB4112D2F800CBBCF1000F06DA11B191
:104AF000C2F800AB04E0C4F8009B01E0C2F8000B70
:104B0000C2F8100BC2F8083B491C8E42E8D8D4F812
:104B1000101821F48072C4F81028A0616FF0804052
:104B20006061BBF1000F03D1A06940F01000A061EB
:104B3000A06909490843A0610C9818B1A06940F028
:104B40000800A061012F03D1A06904490843A061B6
:104B50002846BDE8F08F000000383C80040000408B
:104B6000816821F0010181600020704708B50022B2
:104B70000C490092009B5B1C00938B420AD803698E
:104B8000002BF7DA009210220261009A521C009268
:104B90008A4201D9032008BD0269D206F5D400205B
:104BA00008BD0000400D030018B500230D4A009316
:104BB000009C641C009494420CD80469002CF7DA21
:104BC0000093202343EA811101610099491C00915F
:104BD000914201D9032018BD01698906F5D400204E
:104BE00018BD0000400D030070B50446C0680025E4
:104BF00020F0C040E060012901D079B120E0E068F8
:104C000040F00050E0600120FEF728F860696D1C5C
:104C100010F0010F10D1322DF5D30DE0E06840F017
:104C20008040E0600120FEF719F860696D1C10F00B
:104C3000010F01D0322DF5D3322D01D0002070BDEF
:104C4000012070BDFEE703B401984100009850EACE
:104C5000C12018BF04204A0D18BF40F0010040F2E7
:104C6000FF72B2EB515F08BF40F00200012808BF9D
:104C7000052002B070470907090E002804DB00F187
:104C8000E02080F80014704700F00F0000F1E020F1
:104C900080F8141D7047000030B52DED048B81B0F5
:104CA000B0EE408AF0EE608A6A4651EC180B01F0D3
:104CB00047FA00989FED329B7E300090002821DC5F
:104CC00053EC192B51EC180B04F08EFC1AD0002178
:104CD00040F608004FF00000044651EC180B04F0B9
:104CE0003DFA08EE100A40F6080004EA00014FF011
:104CF0000000B5EEC08AF1EE10FA04BF0220FBF707
:104D0000A9FD2DE00098FF2830DB002108464FF078
:104D1000000000F4400553EC192B51EC180B04F083
:104D20001FFE8CBF002401240220FBF793FD9FEDA2
:104D3000168A4DB1002C0CBF4FF400004FF48000D8
:104D4000A84218BF9FED118A042108464FF00000C9
:104D5000002C01BFB1EE480A01B0BDEC048B30BDA0
:104D6000B0EE480A01B0BDEC048B30BD51EC180B1D
:104D700004F0F4F901B000EE100ABDEC048B30BD74
:104D800000000000000000000000807FFFFF7F7F28
:104D900030B540F2FF742DED048BF0EE608A18EE12
:104DA000901A85B0B0EE408A9FED2B9B05468DEDA5
:104DB000008B34EA115147D053EC192B51EC180BEE
:104DC00004F012FC40D02A4651EC180B05F072F8A2
:104DD00041EC180B18EE900A8DED008B34EA105060
:104DE0001CD053EC192B51EC180B04F0FDFB2BD10C
:104DF0000220FBF72FFD01F007F910EE901A18EED4
:104E0000900A8DED020B8DED008B61F31E00039077
:104E10009DED020B05B0BDEC048B30BD0220FBF70D
:104E200019FD01F0E1F810EE901A18EE900A8DEDE0
:104E3000020B8DED008B61F31E0003909DED020BC4
:104E400005B0BDEC048B30BD05B0B0EE480AF0EE05
:104E5000680ABDEC048B30BD0000000000000000BB
:104E600070B5D94B00242DED020B2DED108BDDE933
:104E70001010984205DA20F000429A4201D809D178
:104E800041B19DED100BBDEC108B02B0BDE8704040
:104E900001F086B8B0F5801F26DA11430BD0002848
:104EA00013DA0120FBF7D6FCBDEC108B02B0BDE895
:104EB000704001F089B80220FBF7CCFC01F058F8F3
:104EC00051EC100B04F03EF99EE06FF035049FEDBD
:104ED000C00B53EC102B9DED100B51EC100B04F09C
:104EE00041FCCDE91001084604EB2051C0F3130446
:104EF000B948A1F2FF31204400F4801080F07F62B5
:104F000082F04052224301EB20559FEDB50B1192E8
:104F100053EC102B9DED100B51EC100B04F02EFEFA
:104F200041EC180BA01CC0F313009FEDAFDB9FED0D
:104F3000B0EBB14E7E4403286CD296ED000B51ECE1
:104F4000180B53EC102B04F04FFB1DD1002D01BFAB
:104F500096ED000BBDEC108B02B070BD284604F03E
:104F6000AEFB41EC180B53EC1D2B04F0FBFB41ECAA
:104F7000190B53EC1E2B51EC180B04F0F3FB53EC04
:104F8000192B04F01DF93FE09FED9D0B51EC180B20
:104F900053EC102B04F0E6FB9FED9B1B53EC112B05
:104FA00004F014FD41EC190B53EC182B51EC180BC9
:104FB00004F0D8FB53EC192B04F0D4FB41EC190B93
:104FC000002D04BF53EC192B51EC180B1AD02846B6
:104FD00004F075FB41EC1A0B53EC1D2B04F0C2FBE3
:104FE00053EC192B04F0F2FC53EC182B04F0C6FD23
:104FF00041EC180B53EC1E2B51EC1A0B04F0B2FBD6
:1050000053EC182B04F0BAFDBDEC108B02B041EC50
:10501000100B70BD9FED7E0B51EC180B53EC102B59
:1050200004F0CEF841EC100B51EC180B53EC102BA4
:1050300004F082F941EC190B284604F040FB41ECE6
:105040001B0B53EC192B51EC190B04F08BFB41ECAF
:105050001A0B714853EC1A2B261851EC1A0B04F05A
:1050600081FB41EC1F0B6D48C4F1510404F5D724BA
:10507000B0EE4F0AF0EE6F0A0321784400F0FCFE18
:1050800053EC1F2B51EC100B04F06CFB41EC1C0B90
:105090006348B0EE4F0AF0EE6F0A0421784400F046
:1050A000EBFE53EC1A2B51EC100B04F05BFB34437A
:1050B00053EC1C2B04F084F841EC1C0B002C4CDD51
:1050C0009FED510B51EC180B53EC102B04F04AFBE5
:1050D00053EC182B04F046FB41EC1A0B55B353EC80
:1050E0001D2B51EC1B0B04F03DFB41EC1D0B53EC55
:1050F0001C2B51EC1A0B04F063F853EC192B04F041
:1051000031FB53EC1D2B04F05BF853EC1A2B04F02D
:105110005DFC53EC182B04F031FD41EC180B53EC03
:105120001E2B51EC1B0B04F01DFB53EC182B04F051
:1051300025FD69E753EC1C2B51EC1A0B04F040F8E9
:1051400053EC192B04F00EFB53EC1A2B04F03EFC2D
:1051500053EC182B04F03AFC56E735B353EC1D2BF7
:1051600051EC1B0B04F0FEFA41EC1A0B53EC1C2B18
:1051700051EC180B04F002FD53EC192B04F0F2FA79
:1051800053EC1A2B04F0FAFC53EC182B04F0F6FC49
:1051900041EC180B53EC1E2B51EC1B0B04F0E2FA04
:1051A00053EC182B04F0EAFC2EE753EC1C2B51ECCB
:1051B000180B04F0E3FC53EC192B04F0D3FA53EC76
:1051C000182B04F003FC1FE70000F07F0000000034
:1051D0000000000000005043645F09000000000070
:1051E000000000000000F03F763C7935EF39EA3DE1
:1051F0000000E0FE422EE63FC05F0000000000001D
:10520000555555555555D53F000000000000E03F6D
:10521000000000000000004086EBF9FFBA5D0000CE
:10522000B05D0000000000002DE9F04D2DED040BF5
:105230002DED0E8B96B0DDE92550279CDDF890A072
:1052400025F0004624F00048BAF1000F14BF0121F8
:10525000002101EB4502FC4953184A1093422AD31E
:10526000002814BF0123002303EB44030B44F74938
:105270008B4220D358EA00019FEDF59B76D0DFF8F2
:10528000D8B35D4503D1BAF1000F05D188E0BAF17A
:10529000000F08BF002100D0012101EB450111F5ED
:1052A000001F08D8002814BF0121002101EB440190
:1052B00011F5001F0BD99DED261B9DED240B16B09B
:1052C000BDEC0E8B04B0BDE8F04D00F073BE0027BE
:1052D000002DBCBFE149884521DAE1498845A8BFD6
:1052E00002271CDAC3451ADCDE4901EB28511429D8
:1052F00008DDC1F1340220FA02F101FA02F2824221
:105300000DD108E058B9C1F1140228FA02F101FAEE
:1053100002F2424503D101F00101C1F1020756EA50
:105320000A0124D1002C22DA002D18BF022F01D04F
:10533000012F0AD00220FBF78DFA16B0BDEC0E8BC0
:1053400004B0BDE8F04D00F013BE0220FBF782FA76
:1053500000F00EFE51EC100B03F0F4FE41EC100BCC
:1053600016B0BDEC0E8B04B0BDE8F08D18E09FEDDB
:10537000BEAB9FEDBF8B002871D1B848804522D1CC
:1053800005F1804010F5801008BFBAF1000F07D07A
:10539000B3450ADC002CA8BF9DED260BE0DA0DE03A
:1053A000B0EE490AF0EE690ADAE7002C06DA9DED64
:1053B000260B51EC100B03F0C5FE6FE0AE487844AD
:1053C00090ED000BCCE7D8454DD1002C48DA2EB13A
:1053D00086423AD1BAF1000F42D126E0BAF1000F6D
:1053E00013D00220FBF736FA00F0FEFD8DED020B24
:1053F0009DED240B8DED000B10EE900A039961F3E7
:105400001E0003909DED020BAAE78DED02AB9DED12
:10541000240B1AEE901A10EE900A8DED000B61F33A
:105420001E0003909DED020B9AE78DED028B9DED22
:10543000240B18EE901A10EE900A8DED000B61F31C
:105440001E0003909DED020B8AE709DA9DED240B07
:1054500051EC190B53EC102B03F06EFF1EE020E013
:105460009DED240B7CE786421BDAB4F1804F0DD012
:10547000A4F10050B0F1FF5013D1002D11DB9DEDD0
:10548000240B51EC100B01F0ADFC07E09DED240B5B
:1054900053EC102B51EC100B00F0C2BC41EC100B84
:1054A0005EE79DED240B51EC100B00F03DFEBAF1D0
:1054B000000FCDE90E0142D19FED710B46B3A6F16D
:1054C000E040B0F17F600CD05E4538D1002D00DAAD
:1054D000A7B3022F0CBF01204FF0FF3004F0EFF80C
:1054E000DCE7002D01DD002C0DDA002D01DD002CA4
:1054F0001FDB002D16DA002C14DB012F08BF9FEDF7
:10550000620B3FF42DAFB0EE4A0AF0EE6A0A27E7CD
:10551000022F18BF002D0CD0012F0AD1002DFFF64D
:105520001FAF06E0002DB8BF002C08DA012F3FF4B2
:1055300017AFB0EE480AF0EE680A11E71BE0012051
:1055400000EBE57050EA070115D0791EB0EE498AEC
:10555000F0EE698A084308BF9FED4D8B4E48002549
:10556000804570DD4D494E48884514DDB0420DDB65
:10557000002C19DB2FE00120FBF76CF916B0BDEC15
:105580000E8B04B0BDE8F04D00F01EBDB34502DC4B
:10559000002C09DC1FE0864202DA002C1BDA03E053
:1055A0005E452BDD002C16DD0220FBF753F900F0E1
:1055B0001BFD8DED020B53EC1A2B51EC180B04F074
:1055C000D1F8CDE900010399019861F31E00039021
:1055D0009DED020BC4E60220FBF73CF900F014FD40
:1055E00010EE901A18EE900A8DED020B8DED008BE7
:1055F00061F31E0003909DED020BB1E69DED0E0BD5
:1056000053EC192B51EC100B04F0B8FA9FED260B5C
:10561000CDE9080153EC102B9DED080B51EC100B5C
:1056200004F0A0F89FED221B53EC112B04F0CEF9EF
:105630009DED081B53EC112B04F094F89FED1E1BFD
:1056400053EC112B3CE08CE0FFFF1F00FFFF0F002D
:10565000000000000000F03F0000F03F0000F07F7D
:105660000000404301FCFFFF000000000000F07F4D
:105670000000000000000000365B00000000000099
:105680000000000000000080000000000000F0FFAB
:10569000000000000000F0BF0000E0410000F04307
:1056A000FFFFEF3F00000000000000000000D03FBF
:1056B000555555555555D53F000000000000E03FB9
:1056C00004F084F99DED080B41EC1A0B53EC102B00
:1056D00051EC100B04F046F853EC1A2B04F042F88E
:1056E00041EC1A0B9FEDFE0B53EC102B9DED080BBC
:1056F00051EC100B04F036F841EC1B0B9FEDFA0B4C
:1057000051EC1A0B53EC102B04F02CF841EC1A0B53
:105710009FEDF70B53EC102B9DED080B51EC100B8C
:1057200004F020F853EC1A2B04F028FA41EC1A0B81
:1057300051EC1B0B53EC1A2B03F042FD0690CDE904
:1057400006519DED060B53EC1B2B51EC100B04F096
:1057500015FA53EC1A2B04F039F941EC100B00F058
:10576000A1B90020B6F5801F0EDA9FEDE30B53ECD4
:10577000102B9DED0E0B51EC100B03F0F3FFCDE958
:105780000E016FF034000E4600EB2650A0F2FF37FA
:10579000C6F31300DA4940F07F6646F0405688426F
:1057A000D8BF002408DDD7498142C8BF012403DCEB
:1057B0000024A6F580167F1CD348784400EBC40073
:1057C0000F9690ED00CB9DED0E0B53EC1C2B51EC86
:1057D000100B04F0D3F99DED0E0B41EC1B0B53ECB9
:1057E0001C2B51EC100B03F0EBFC41EC100B51ECBB
:1057F000190B53EC102B03F09FFD41EC1D0B51ECEA
:105800001B0B53EC1D2B03F0ADFF41EC1A0BBF48F3
:105810008DED10AB7844109590ED000B4FF00050DB
:1058200040EA660000EB84408DED080B00F5002097
:1058300009909DED080B53EC1C2B51EC100B04F060
:105840009DF99DED0E1B53EC112B04F0BFF841ECBC
:10585000100B53EC102B9DED100B51EC100B03F0C3
:1058600081FF9DED080B41EC1C0B53EC102B9DEDC3
:10587000100B51EC100B03F075FF53EC1B2B04F0D5
:10588000A5F853EC1C2B04F079F953EC1D2B03F015
:1058900069FF41EC1C0B53EC1A2B51EC1A0B03F073
:1058A00061FF41EC1B0B9A480621B0EE4B0AF0EE6B
:1058B0006B0A784400F0E0FAB0EE401AF0EE601A9D
:1058C000B0EE41DAF0EE61DA53EC1B2B51EC1B0B1E
:1058D00003F048FF53EC1D2B03F044FF9DED100B2C
:1058E00041EC1B0B53EC1A2B51EC100B03F068FC32
:1058F00053EC1C2B03F036FF53EC1B2B03F060FC26
:105900009DED100B41EC1B0B53EC102B51EC100BCD
:1059100003F028FF41EC1D0B9FED7FEB53EC1E2B9A
:1059200003F04EFC53EC1B2B03F04AFC0890CDE92E
:1059300008519DED080B53EC1E2B51EC100B04F09D
:105940001DF953EC1D2B04F019F953EC1B2B04F03B
:105950003DF89DED080B41EC1D0B53EC102B9DED1C
:10596000100B51EC100B03F0FDFE41EC1B0B53EC44
:105970001A2B51EC1D0B03F0F5FE9DED080B41ECCD
:105980001A0B53EC102B51EC1C0B03F0EBFE53ECF9
:105990001A2B03F015FC41EC1A0B51EC1B0B53ECCA
:1059A0001A2B03F00DFC0C90CDE90C519DED0C0B66
:1059B00053EC1B2B51EC100B04F0E0F853EC1A2BBA
:1059C00004F004F841EC1B0B9FED550B53EC102B2E
:1059D0009DED0C0B51EC100B03F0C4FE41EC1A0BC7
:1059E0009FED510B51EC1B0B53EC102B03F0BAFE47
:1059F00041EC1B0B9FED4E0B53EC102B9DED0C0B54
:105A000051EC100B03F0AEFE53EC1B2B03F0D8FB54
:105A100041EC100B4848784400EBC40090ED001BAB
:105A200051EC100B53EC112B03F0CAFB41EC1B0B98
:105A3000384603F044FECDE9080153EC1B2B51EC32
:105A40001A0B03F0BDFB41EC100B3C48784400EB13
:105A5000C40090ED00CB51EC100B53EC1C2B03F069
:105A6000AFFB9DED081B53EC112B03F0A9FB069037
:105A7000CDE906519DED080B53EC102B9DED060B67
:105A800051EC100B04F07AF853EC1C2B04F076F870
:105A900053EC1A2B04F072F853EC1B2B03F096FF17
:105AA00041EC100B9DED261B53EC102B8DED001BD4
:105AB00000959DED260B51EC100B03F053FE9DED70
:105AC000000B41EC1A0B53EC102B9DED260B51EC07
:105AD000100B04F053F89DED061B53EC112B2FE037
